:020000040000FA
:06000000FBEF0DF0120001
:0600080004EF04F01200F9
:060018000CEF04F01200E1
:06080000FBEF0DF01200F9
:060808002DEF09F01200C3
:0608180034EF09F01200AC
:06082A000100221C000089
:08083000F900000004000000C3
:08083800ADEC08F06A6A686A81
:100840009F0E6B6EFB0E696E6D8C6D9C6E6A8AECF2
:1008500008F0DF6ADF50006E016A0C0E005C000ECB
:10086000015810E2DF50040DF3CFE9FFF4CFEAFFA7
:10087000000EE926040EEA22EE6AEE6AEE6AEE6ADD
:10088000DF2AE8D7160E706E68A604D0030E4CEC73
:1008900008F0FAD7DF6A030EDF5C04E20101176B90
:1008A000DF2AF9D76D980101080E0D6F040E0E6F47
:1008B000016B006BB0EF08F0ADEC08F001010051E6
:1008C0000BE16D6A696A6DB602D06D86FCD70101D5
:1008D000010E006F160E6F6E000508E16DBA06D0AE
:1008E000686A696A69806988020E006F6850040B43
:1008F00004E06950040B01E062D86DB248D0685042
:10090000010B11E06950010B0EE096DF0101040EAE
:10091000006F0401300E026F040E036F080E016FAA
:10092000006B8C0E00136850100B04E06950100B24
:1009300001E03FD86850400B07E06950400B04E0ED
:1009400091EC0BF0060EA8DB6850200B04E0695018
:10095000200B01E01DD86850020B06E06950020B25
:1009600003E092EC0BF06A6A040E0101005D0FE3F4
:1009700069A60DD0DF6A040EDF5C09E268A607D025
:100980006CCF1DF1030E88DB24D8DF2AF4D7E8D31F
:1009900070A00CD0B0DBEF50800807E187DBEF5090
:1009A000840803E1A8DB8C0EEF6E7090060E4CEF0E
:1009B00008F06984040E70DB6D828FEF0BF06D928E
:1009C00090EC0BF0699468A403D0020E65DBFBD7B2
:1009D0001200FD0E01011D1519E17E0E1D15E840E6
:1009E0007F0B040DF3CF03F1F4CF04F1000E0327C6
:1009F000040E042303C105F104C106F1057502ECE0
:100A000009F002E10CEF05F01DEF05F0FD0E1D15DC
:100A1000040801E124D8120049DBEF50800B02E00A
:100A200045DBEF6A0101136B146B186B196B176BC5
:100A300093D893EC0BF0D8EF06F0020E0101145D91
:100A40000CE13ADA58DBEF50400B03E1AEDBC80EA5
:100A500002D0ABDB880EEF6E12005BEF05F07DDBA2
:100A600025DBEF50400B01E0010EDF6E01010D753B
:100A7000080E005D09E132C46EFF6E50000802E20C
:100A8000100E01D0040E006F140513E10FDB5ADBCA
:100A9000C9D9020E0101135D03E108DB840E07D002
:100AA000DF5003E103DBC80E02D000DB880EEF6EDF
:100AB00001D001D855D38EDB030EE126020E0101D1
:100AC000145D31E16D50100B2EE015DBEE52EF504E
:100AD000006E016A080E001826E1015024E192DB45
:100AE00022E163DBEF50800B1EE15FDB63DBDF6A3B
:100AF000DF50006E016A080E005C000E015826E20D
:100B0000DF50EA6A380FE96E040EEA22EF50E66E13
:100B1000DF50EA6A300FE96E040EEA22E552E75030
:100B2000EF6EDF2AE5D7146B7CDBEF6A040E0D193C
:100B3000006E010E00C0DBFF020E0EC1DBFF010ED6
:100B4000DBCFE9FF020EDBCFEAFFEF6A030EE15CC9
:100B500002E2E16AE552B8D204013051600BE8428A
:100B6000E842E842E842E842000901E0120031515F
:100B70000C0A43E00B0A3FE00C0A31E0010A22E0D4
:100B80000B0A1EE0020A1CE0030A18E0080A10E043
:100B9000010A0CE00F0A08E0030A01E0120001015B
:100BA000178F080E006F120064EF06F07CEF07F05D
:100BB0000101010E156F010E166F0CD09FEF06F0AC
:100BC000FEEF05F034510101156F166B020E15276B
:100BD000010E16231781010E186F178F12000101E5
:100BE000178F04013451EA6A020FE96E010EEA22FE
:100BF00032C4EFFF1200DAEF0BF01200EBDA050E51
:100C0000E1260401320510E130511F0B00090CE10F
:100C10000101178F030E0401315D04E10101010E92
:100C20001C6F02D001011C6B0401325147E13051AD
:100C30001F0B020843E134510F0B00093FE0010193
:100C4000178F040EDB6A020EF36E040EDBCFF4FF87
:100C5000F350F45C33E2A4DA040EDBCFE6FF0401C8
:100C60003451800B01E0010E7DDAE552E724B7DA5A
:100C7000030E315D03E11FDA840E1CD034510F0BDB
:100C8000016A700F006E0F0E0122020E00C0DBFF22
:100C9000030E01C0DBFF020EDBCFE9FF030EDBCF4B
:100CA000EAFFEE90ED5234AF03D005DA400E02D0E9
:100CB00002DAC80EEF6E040EDB2AC5D7050EE15C22
:100CC00002E2E16AE55200D2800E0401305D36E1B5
:100CD0000101C00E176F04013351030A1EE0010A1F
:100CE00009E0030A29E101014A0E156F1B0E166F78
:100CF000120E1FD04EDAB80EF6261B0E3BDA020E8D
:100D00000101F76A1525F66E1651F7220900F5CF95
:100D100018F10A00F5CF19F112003BDABA0EF626E7
:100D20001B0E28DA15C1F6FF16C1F7FF0800F550B3
:100D30000101186F196B12000101176B1200C0D965
:100D40000401386B396B30511F0B020A11E0030AA2
:100D50000CE0010A1DE10101178F04013881010136
:100D60001C0516E10401388313D00101178F10D040
:100D70000101178F15DA04013451800B01E0010ED7
:100D8000F1D92DDA98D9EF50040B02E0010E386F3B
:100D9000010117AF07D0380E156F040E166F1781BB
:100DA000020E186F020EE15C02E2E16AE5528CD19C
:100DB0006D98010117BF03D034DA840E31D00401DD
:100DC00030AF21D0010118510401365D01011951E4
:100DD0000401375904E236C418F137C419F122D896
:100DE0000101010E146F54D9800EEF6E84D9EE52BA
:100DF000080EEF6E80D9DED97ED9800EEF6E56D9FF
:100E0000A1D954D90CD00101020E146F4FD9EE5262
:100E1000EF6A4CD9C80EEF6E15DA94D9C6D9C80E50
:100E2000EF6E12004DD90101080E185D000E195920
:100E30000DE218C1DEFF19C1DDFF135102E1010E01
:100E400003D0130506E1020E136F03D0080EDE6E09
:100E5000DD6A2CD9EF922AD9EF9028D9010EDB5008
:100E6000EF1224D9EE52DFCFEFFF000EDB50185FF8
:100E7000010EDB50195B380E1A6F040E1B6F17B191
:100E80000FD0D4D913E015C1F6FF16C1F7FF152B0B
:100E9000000E16230800F55019D9F3E2DB06F1D74E
:100EA000C5D904E08DD9FCE2DB06FAD7020EE15C7D
:100EB00002E2E16AE55208D103D977D9EF50030B7A
:100EC000E76E010EE7CFDBFFEE52EFCFDFFFDE5024
:100ED00001011827DD501923380E156F040E166F07
:100EE000A5D904E06DD9FCE2DB06FAD7020EE15C7D
:100EF00002E2E16AE552E8D00101178F0BD9010E39
:100F0000E66EE66AE66A020EE66E010E82D932C429
:100F100001F10401325104E10101100E006F1200D1
:100F20000101200E006FDBEF0BF0CAD839D9E8D8E9
:100F3000040DF350006E016A020E0F0B05E0D8900D
:100F400001320032E806FBE1D89000360136D89035
:100F500000360136FDD80050EE260150ED22ABD808
:100F6000EF9EFD0EDB5002E143D901D046D9EA22C3
:100F7000DECFEEFFDDCFEDFF9ED8EF9C9CD8040EB8
:100F8000E926000EEA22EF8C020EE15C02E2E16A41
:100F9000E5529AD095D8FE0EDB50016A700F006EB4
:100FA0000F0E012200C0DEFF01C0DDFFFD0EDB5091
:100FB000E66E81D8E552E750EE6EED6AFD0EDBA4D9
:100FC00002D0E66ADFD8FD0EDBA203D0010EE66E8A
:100FD000D9D8020EE15C02E2E16AE55275D070D820
:100FE0008FD8A1D827D98CD8010F9DD8006E22D9CF
:100FF000020EE15C02E2E16AE55266D061D8FD0EC4
:10100000DB5002E0FAD801D0F3D8EA22EECFDEFFBF
:10101000EDCFDDFF50D81CD9FB0EDBCFEEFFFC0E71
:10102000DBCFEDFF48D8EE52FA0EDBCFEFFF400EDC
:1010300042D8E850EF16880EFDD8FD0EDB5002E0D6
:10104000DCD801D0D5D8EA22EF74DECF00F0DDCFB6
:1010500001F000C0F3FF01C0F4FF020EE15C02E208
:10106000E16AE55231D0B6D8010EF36EFC0EDB50CA
:1010700004E0D890F336E806FCE1F31C006EFD0EA8
:10108000DBCFE9FFFE0EDBCFEAFF0050EF16D6D034
:10109000D9D890D8D5EF08F0E66E680EE66E0F0E40
:1010A000E66EE1DFE552E552E55212000DC1E9FFBF
:1010B0000EC1EAFF1200DECFE9FFDDCFEAFF12002A
:1010C00089D8020EE1261200E16EB8D0E66E1AC190
:1010D000E9FF1BC1EAFF1A2B000E1B23E552E75064
:1010E000EF6EDF06010E1200FE0EEA6ADB34FE0B25
:1010F000EA36E96E120003C1E9FF04C1EAFF1200FB
:10110000FD0EDB50E824026EFE0EDB50040DF350A2
:10111000022412000F0EE66EE66AE66A710EE66EB3
:101120000F0E09EF09F0040DF3CF00F0F4CF01F03A
:10113000000E0026040E012200C0DEFF01C0DDFF0C
:10114000840E120085D8380EEE6E040EED6E12007D
:10115000D9CFE9FFDACFEAFF12003CD8E6521200FD
:10116000E5526CD0E824026E34510F0B040DF3509D
:1011700002241200F7220900F5CF15F10A00F5CF7D
:1011800016F11200FE0EDBCFE6FFCFDEE552E55290
:1011900012003251F66EF76AD890F636F736120022
:1011A000000EDE6E040EDD6E120005C1E9FF06C101
:1011B000EAFF12004DD8300EEE6E040EED6E1200F6
:1011C00015C1E9FF16C1EAFF152B000E1623EF50DB
:1011D00066EF08F0D9CFE6FFE1CFD9FF1200040D8A
:1011E000F4CF01F0B5DFF350EE260150ED221200EE
:1011F0007BDF070EE926010E120076DF0D0EE926D1
:10120000010E120078DFEF503C0BE842E8420D0877
:101210001200E66EE1EC0DF0006E050EE15E00508E
:10122000120036DF8C0EEF6E56EF08F091DFEE50B5
:10123000ED10120040DFE850EF121200E552E7CF48
:10124000D9FF1200B2DFEE52080EEF6ED5EF08F0B4
:0A125000020EE926000EEA22120049
:06125A00DACFE4FFE652CA
:10126000E552E5CFDAFF1100120013DB020E000198
:10127000EB5D07E2F0DA310EEE6E600EED6E020EFF
:10128000EB6FE9DAEB51EB2B0F01E924E96E000E6D
:10129000EA20EA6EFE0EDBCFEFFF400E006E00018B
:1012A000EB51D880005409E3EC2B040E006EEC5196
:1012B000D880005401E3EC6BEB6BE552E7CFD9FF2C
:1012C0001200D9CFE6FFE1CFD9FFFE0EDBB08A8254
:1012D000FE0EDBA08A928A8A00008A9AFE0EDBB29A
:1012E0008A82FE0EDBA28A928A8A00008A9AFE0E09
:1012F000DBB48A82FE0EDBA48A928A8A00008A9A74
:10130000FE0EDBB68A82FE0EDBA68A928A8A000077
:101310008A9AFE0EDBB88A82FE0EDBA88A928A8A3F
:1013200000008A9AFE0EDBBA8A82FE0EDBAA8A923F
:101330008A8A00008A9AFE0EDBBC8A82FE0EDBAC33
:101340008A928A8A00008A9AFE0EDBBE8A82FE0E8C
:10135000DBAE8A928A8A00008A9AE552E7CFD9FFEB
:101360001200D9CFE6FFE1CFD9FFE652DF6AFE0EC9
:10137000DBB08A82FE0EDBA08A9281A802D0000E2A
:10138000DB808A8A00008A9AFE0EDBB28A82FE0E19
:10139000DBA28A9281B8DF828A8A00008A9AFE0ED6
:1013A000DBB48A82FE0EDBA48A9281B8DF848A8A4B
:1013B00000008A9AFE0EDBB68A82FE0EDBA68A92B7
:1013C00081B8DF868A8A00008A9AFE0EDBB88A829C
:1013D000FE0EDBA88A9281B8DF888A8A00008A9A8A
:1013E000FE0EDBBA8A82FE0EDBAA8A9281B8DF8A01
:1013F0008A8A00008A9AFE0EDBBC8A82FE0EDBAC73
:101400008A9281B8DF8C8A8A00008A9AFE0EDBBE3F
:101410008A82FE0EDBAE8A9281B8DF8E8A8A000055
:101420008A9ADF5000D0E552E552E7CFD9FF12008B
:10143000D9CFE6FFE1CFD9FFE652DF6AFE0EDBB07F
:101440008A82FE0EDBA08A9281A402D0000EDB808D
:101450008A8A00008A9AFE0EDBB28A82FE0EDBA226
:101460008A9281B4DF828A8A00008A9AFE0EDBB4F7
:101470008A82FE0EDBA48A9281B4DF848A8A00000D
:101480008A9AFE0EDBB68A82FE0EDBA68A9281B4B1
:10149000DF868A8A00008A9AFE0EDBB88A82FE0EF8
:1014A000DBA88A9281B4DF888A8A00008A9AFE0EBD
:1014B000DBBA8A82FE0EDBAA8A9281B4DF8A8A8A2C
:1014C00000008A9AFE0EDBBC8A82FE0EDBAC8A929A
:1014D00081B4DF8C8A8A00008A9AFE0EDBBE8A8283
:1014E000FE0EDBAE8A9281B4DF8E8A8A00008A9A71
:1014F000DF5000D0E552E552E7CFD9FF1200C9D93D
:10150000040EE1260F0EC16E926A936A946A938864
:101510009384F19E800ED56EF29A56EC0CF01CEC82
:1015200004F08B845CEC04F0200E0101005DFAE312
:101530006D50020BF7E10001FB51FC1102E1000EBE
:1015400008D0FBC0E9FFFCC0EAFFEF50800B01E0D0
:10155000010E00092FE10001EA51EC5D06E0400EAA
:10156000E66E5CD90CE3EA6B0AD0EB510AE0EBC003
:10157000E6FF54D901E3EA6BEAC0ECF0EB6BF284CE
:1015800019D0F2A417D0150ED76EA00ED66EF29415
:101590000401310E486F600E496F020EE66E480E70
:1015A000E66E040EE66E010EE66E6BD9F3CFFBF02D
:1015B000F4CFFCF00001F951FA1102E1000E08D05D
:1015C000F9C0E9FFFAC0EAFFEF50800B01E0010E1D
:1015D0000009A8E18B94F9C0E9FFFAC0EAFFEE52D6
:1015E000EFCFE5F0000142D9010E00C0DBFF020E93
:1015F00001C0DBFFE62B040E006EE651D8800054DC
:1016000001E3E66B400EE66E31D900C0E6FF01C093
:10161000E6FFE66A020E42D9F3CFF9F0F4CFFAF012
:10162000DF6A0001E551DF5C01E37BD7DF50E76E45
:10163000010EDBCFE9FF020EDBCFEAFFE750E92620
:10164000000EEA22030EEFCFDBFFE75112E0E95173
:1016500008E0030EDBCFE6FF84DEE552E66E05DE32
:1016600004D0030EDBCFE6FF2CDEE5520001E707D6
:1016700054D0E85112E0E95108E0030EDBCFE6FF59
:10168000D7DEE552E66EF1DD04D0030EDBCFE6FFD8
:1016900018DEE5520001E80740D0030EDB50400B96
:1016A000E96F030EDBAE0AD08AA004D0DB503F0BFB
:1016B000E76F33D0DB503F0BE86F2FD0DBA002D0B9
:1016C0008A8A01D08A9ADBA202D08A8601D08A96C1
:1016D000DBA402D08A8C01D08A9CDBA602D08A804F
:1016E00001D08A90DBA802D08A8201D08A92DBAA3C
:1016F00003D0010EE46F01D0E46BE9510EE081509C
:10170000100B01E0010E006E8150040B01E0010E90
:10171000E8240010E66EA9DDE552DF2A82D7120028
:10172000120012001200B5D8E65204013051600BCD
:10173000E842E842E842E842E842020836E130BFC7
:1017400007D00101400E156F040E166F186B2AD0DA
:10175000900E315D1BE134C400F035C401F0D89027
:10176000003601367E0E0014DF6EDF50EA6A600F2D
:10177000E96E000EEA22EFCF40F4DF28EA6A600F3C
:10178000E96E000EEA22EFCF41F405D00401360ED7
:10179000406F830E416F0101400E156F040E166FEE
:1017A000020E186F196BC10E176FE552E552E7CFA5
:1017B000D9FF120012001A0EE66E010EE66ECAEC98
:1017C00007F0E552E5521C0EE66E020EE66ECAEC1C
:1017D00007F0E552E552400EE66E000EE66E060E8C
:1017E000E66EE66A020E4DD8F3CFF9F0F4CFFAF0C8
:1017F0000001E66BE76BE86BEA6BEB6BEC6B1200DE
:101800006D840001080EED6F070EEE6FED07000E00
:10181000EE5BED51EE11FAE16D941200EA51400DCC
:10182000F3CF00F0F4CF01F0000E0026050E0122E8
:1018300000C0E6FF01C0E6FF010EE66E2FD8F3CF31
:10184000FBF0F4CFFCF00001EA2B040E006EEA512D
:10185000D88000541200EC51400DF3CFE9FFF4CFD3
:10186000EAFF000EE926050EEA221200E651400DBD
:10187000F3CF00F0F4CF01F0000E0026060E012297
:101880001200E66EFEEC07F0006E050EE15E005001
:101890001200D9CFE6FFE1CFD9FF1200E66EFEECD1
:0C18A00007F0026E050EE15E025012001F
:0418AC000001606B6C
:1018B000616B520EF66E1B0EF76E0800F5CF62F0EC
:1018C000530EF66E1B0EF76E0800F5CF63F0540E44
:1018D000F66E1B0EF76E0800F5CF64F0550EF66E2F
:1018E0001B0EF76E0800F5CF65F0560EF66E1B0E58
:1018F000F76E0800F5CF66F0570EF66E1B0EF76E0A
:101900000800F5CF67F0630EF66E1B0EF76E080049
:10191000F5CF68F0640EF66E1B0EF76E0800F5CF7B
:1019200069F01C0E6A6F6B6B4C0EF66E1B0EF76E39
:101930000800F5CF6CF04D0EF66E1B0EF76E08002A
:10194000F5CF6DF0940E6E6F9FD8F5CF6FF09CD8E9
:10195000F550940F706F9DD8F5CF71F09AD8F5CFF0
:1019600000F092D8F550940F0024726FC00EF66EFE
:101970001B0E78D8F5CF73F0140EE36FE06B84D8AC
:10198000F550E05D08E2E051006E016ABC0EF66EB3
:101990001B0E5AD8F4D7E06B7CD8F550E05D08E216
:1019A000E051006E016ABE0EF66E1B0E4DD8F4D7E4
:1019B000E06BC00EF66E1B0E55D8F550E05D08E2E8
:1019C000E051006E016AC00EF66E1B0E3DD8F1D7D5
:1019D000E06B040EE05D08E2E051F76A580FF66E26
:1019E0001B0EF72248D8F5D77E0EE35D03E256D8EA
:1019F000EF6AFAD7AA0EE16FE26FE06B3F0EE05D8F
:101A00001EE2E051E96EEA6AD890E936EA36600EE5
:101A1000E926000EEA22EE50E11BEE50E21BE251F5
:101A2000800B08E0D890E137E237010EE113000E99
:101A3000E21303D0D890E137E237E02BDFD7E1C0E3
:101A4000DEF0E2C0DFF01200F76E0900F55000246E
:101A5000F36E0900F5500120F46EF3CFF6FFF76E38
:101A60003BEF0DF0F76E0900F5500800F5CFF7FFDA
:101A7000F66E080012000800F550E66E0FD8E55229
:101A8000E750EF6EE02B1200BC0EF66E1B0E32EF2D
:101A90000DF0BE0EF66E1B0E32EF0DF0E351E32B90
:0C1AA000EA6A600FE96E000EEA221200F4
:041AAC002A0EF66E9A
:101AB000080EF76E000EF86E00010900F550F46F85
:101AC0000900F550F56F03E1F46701D03DD009003E
:101AD000F550EF6F0900F550F06F0900F550F16F08
:101AE00009000900F550E96E0900F550EA6E090099
:101AF00009000900F550F26F0900F550F36F090075
:101B00000900F6CFF6F0F7CFF7F0F8CFF8F0EFC016
:101B1000F6FFF0C0F7FFF1C0F8FF0001F25302E159
:101B2000F35307E00900F550EE6EF207F8E2F30711
:101B3000F9D7F6C0F6FFF7C0F7FFF8C0F8FF0001CD
:0A1B4000F407000EF55BBFD712009A
:061B4A0012011001000071
:101B50000008FB09016000040102030109022000E2
:101B6000010100804B0904000002FFFFFF00070590
:101B7000810240000107050202400001040309043C
:101B80000E0341006C0074006500720061001803D0
:101B90005500530042002D0042006C0061007300AC
:101BA0007400650072001203300030003000300015
:101BB00030003000300030005C1B7C1B801B8E1B13
:021BC000A61B62
:0E1BC200FE0EE3CFE9FFFF0EE3CFEAFFE9CF0F
:101BD000F3FFEACFF4FFFB0EE35003E1FC0EE3500A
:101BE00009E0FB0EE30602E2FC0EE306FD0EE35005
:061BF000EE6EF1D71200B9
:0A1BF60013EE00F023EE00F0F86A91
:101C0000049C56EC0DF010EC0EF07FEC0AF0FBD7C4
:021C10001200C0
:0E1C120000EE00F00F0EEE6AEA62FDD712003F
:021C20001200B0
:041C220000000000BE
:020000040030CA
:0100000024DB
:010001000EF0
:010002003FBE
:010003001EDE
:010005008179
:010006008178
:010008000FE8
:01000900C036
:01000A000FE6
:01000B00E014
:01000C000FE4
:01000D0040B2
:00000001FF
